:1000000009C00EC00DC00CC00BC00AC009C008C09A
:1000100007C006C011241FBECFE9CDBFC0D012C19A
:10002000EFCF83E087BB0895CF92DF92EF92FF92EC
:100030006C0116BC80E886BD82E58FBD0D2C000CDE
:10004000EE08FF0860E576E480E090E0A701960105
:10005000BBD0A90141505109413251051CF082E049
:1000600083BF0CC083E083BF68E273E280E090E06E
:10007000A7019601A9D0A9014150510946BF49BD28
:10008000FF90EF90DF90CF90089516BC80E886BD7A
:1000900082E58FBD81E083BF82E086BF089580E165
:1000A00081BD0895CF93DF9300D0CDB7DD2712C077
:1000B0001A82198229813A81283231055CF429811A
:1000C0003A812F5F3F4F3A83298329813A81283231
:1000D0003105ACF3019760F7CE5FCDBFDF91CF91D3
:1000E0000895CF93DF93EB019FDFB99ACE01DADF5A
:1000F000DF91CF910895B998D5DF089568EC70E04D
:1001000085E091E0EEDF88EC90E0F5DF68EC70E0F0
:1001100085E091E0E6DF88EC90E0EDDF68EC70E0F0
:1001200082ED91E0DEDF88EC90E0E5DF68EC70E0E6
:1001300085E091E0D6DF88E592E0DDDF68EC70E0F5
:1001400088E891E0CEDF88E592E0D5DF68EC70E0EA
:1001500088E891E0C6DF88EC90E0CDDF68EC70E0E5
:1001600085E091E0BEDF88EC90E0C5DF68EC70E0F0
:100170008DE591E0B6DF88EC90E0BDDF68EC70E0E3
:1001800089E491E0AEDF88EC90E0B5DF68EC70E0E8
:1001900085E091E0A6DF88EC90E0ADDF089580E196
:1001A00081BD83E087BBAADF70DF80E090E0C1E023
:1001B000D0E0C59B06C00097E1F7A0DF8C2F9D2FF4
:1001C000F8CFC59BFECFF9CF052E97FB16F4009410
:1001D0000FD057FD05D014D007FC02D046F408C05C
:1001E00050954095309521953F4F4F4F5F4F089563
:1001F00090958095709561957F4F8F4F9F4F089593
:10020000A1E21A2EAA1BBB1BFD010DC0AA1FBB1F1A
:10021000EE1FFF1FA217B307E407F50720F0A21B8C
:10022000B30BE40BF50B661F771F881F991F1A94F9
:1002300069F760957095809590959B01AC01BD0123
:08024000CF010895F894FFCFEF
:00000001FF
