:1000000009C00EC00DC00CC00BC00AC009C008C09A
:1000100007C006C011241FBECFE9CDBFB7D008C1AD
:10002000EFCF83E087BB0895CF92DF92EF92FF92EC
:100030006C0116BC80E886BD82E58FBD0D2C000CDE
:10004000EE08FF0860E576E480E090E0A701960105
:10005000B1D0A90141505109413251051CF082E053
:1000600083BF0CC083E083BF68E273E280E090E06E
:10007000A70196019FD0A9014150510946BF49BD32
:10008000FF90EF90DF90CF90089580E181BD0895BB
:10009000CF93DF9300D0CDB7DD2712C01A8219822B
:1000A00029813A81283231055CF429813A812F5F18
:1000B0003F4F3A83298329813A8128323105ACF3B5
:1000C000019760F7CE5FCDBFDF91CF910895CF93B9
:1000D000DF93EB01BC01A8DFB99ACE01D9DFDF9134
:1000E000CF910895B998D4DF089568EC70E085E069
:1000F00091E0EDDF88EC90E0F5DF68EC70E085E002
:1001000091E0E5DF88EC90E0EDDF68EC70E082EDF7
:1001100091E0DDDF88EC90E0E5DF68EC70E085E001
:1001200091E0D5DF88E592E0DDDF68EC70E088E8FB
:1001300091E0CDDF88E592E0D5DF68EC70E088E8FB
:1001400091E0C5DF88EC90E0CDDF68EC70E085E001
:1001500091E0BDDF88EC90E0C5DF68EC70E08DE5F4
:1001600091E0B5DF88EC90E0BDDF68EC70E089E4F9
:1001700091E0ADDF88EC90E0B5DF68EC70E085E001
:1001800091E0A5DF88EC90E0ADDF089580E181BDCE
:1001900083E087BBAADF80E090E0C1E0D0E0C59BB0
:1001A00006C00097E1F7A1DF8C2F9D2FF8CFC59BEC
:1001B000FECFF9CF052E97FB16F400940FD057FD14
:1001C00005D014D007FC02D046F408C050954095E5
:1001D000309521953F4F4F4F5F4F089590958095F3
:1001E000709561957F4F8F4F9F4F0895A1E21A2E12
:1001F000AA1BBB1BFD010DC0AA1FBB1FEE1FFF1FCB
:10020000A217B307E407F50720F0A21BB30BE40B1A
:10021000F50B661F771F881F991F1A9469F7609561
:100220007095809590959B01AC01BD01CF0108951B
:04023000F894FFCF70
:00000001FF
